:100000000C94B8010C94E9010C94E9010C94E901F9
:100010000C94E9010C94E9010C94E9010C94E901B8
:100020000C94E9010C94E9010C94E9010C94E901A8
:100030000C94E9010C94E9010C94E9010C94E90198
:100040000C94E9010C94E9010C94E9010C94E90188
:100050000C94E9010C94E9010C94E9010C94200939
:100060000C94E9010C9494090C946A090C94E9012C
:100070000C94E9010C94E9010C94E9010C94E90158
:100080000C94E9010C94E9010C94E9010C94E90148
:100090000C94E9010C94E9010C94E9010C94E90138
:1000A0000C94E9010C94E9010C94E9010C94E90128
:1000B0000C94E9010C94E9010C94E9010C94E90118
:1000C0000C94E9010C94E9010C94E9010C94E90108
:1000D0000C94E9010C94E9010C94E9010C94E901F8
:1000E0000C94E9010C944A020C9417020C942E0211
:1000F0000C944E020C9413030C9440030C94440291
:100100000C9413020C9448040C9440020C94A90320
:100110000C9447040C940F0A0C9449020C94360278
:100120000C940F020C9428020C944F030C94F603C9
:100130000C941B020C9432020C9409020C941E02C3
:100140000C9485070C943C020C9471030C942402CB
:100150000C94630300407A10F35A00A0724E180901
:100160000010A5D4E80000E87648170000E40B541E
:10017000020000CA9A3B000000E1F50500008096ED
:100180009800000040420F000000A086010000001F
:10019000102700000000E8030000000064000000D9
:1001A00000000A00000000000100000000002C76A2
:1001B000D888DC674F0823DFC1DFAE59E1B1B796BD
:1001C000E5E3E453C63AE651997696E8E6C284261A
:1001D000EB898C9B62ED407C6FFCEFBC9C9F40F2F6
:1001E000BAA56FA5F490055A2AF75C936B6CF96772
:1001F0006DC11BFCE0E40D47FEF520E6B500D0ED37
:10020000902E0300943577050080841E080000209E
:100210004E0A000000C80C333333330F986E12833C
:100220001141EF8D2114893BE65516CFFEE6DB1810
:10023000D1844B381BF77C1D901DA4BBE4242032D5
:1002400084725E228100C9F124ECA1E53D27000003
:100250002100240027002A002D0030003300010176
:100260000000040107010A01000022002500280007
:100270002B002E00310034000201000005010801AE
:100280000B01000020002300260029002C002F0075
:100290003200000100000301060109010505050502
:1002A000070508080808020202020A0A08080404EE
:1002B000040401010101010101010303030303031C
:1002C0000303040707070C0C0C0C0C0C0C0C0202AB
:1002D000020206060606060606060B0B0B0B0B0BA8
:1002E0000B0B010210202008081020401020408035
:1002F00002010201080402010102040810204080EA
:100300008040201008040201800402018040201077
:1003100008040201080402010102040810204080C0
:10032000010204081020408000000A0B02090C0D95
:100330000E08070304010000000000000000000098
:1003400000000000000000000000000000000000AD
:10035000000000001211100000000000000000006A
:1003600000000000000000000000000000000F0A74
:1003700011241FBECFEFD1E2DEBFCDBF00E00CBF26
:1003800023E0AAE7B2E001C01D92AC33B207E1F767
:1003900012E0A0E0B2E0EAEDF3E200E00BBF02C041
:1003A00007900D92AA37B107D9F711E0C8EBD1E059
:1003B00000E006C021970109802FFE010E94CD0FA9
:1003C000C73BD10780E00807A9F70E94590A0C949F
:1003D000EB110C9400008150823108F05AC0E82FD4
:1003E000F0E08827E950FE4F8F4F0C94CD0F170295
:1003F0001B0209020F02130249021E0224022802F4
:100400002E02320236023C024002490244024A02F3
:100410004E02809180008F778093800008958091B4
:1004200080008F7DF9CF80918000877FF5CF84B5E4
:100430008F7784BD089584B58F7DFBCF8091B00008
:100440008F778093B00008958091B0008F7DF9CFB1
:10045000809190008F778093900008958091900014
:100460008F7DF9CF80919000877FF5CF8091A0009C
:100470008F778093A00008958091A0008F7DF9CFA1
:100480008091A000877FF5CF809120018F778093A6
:1004900020010895809120018F7DF9CF8091200166
:1004A000877FF5CF1F93CF93DF93282F30E0F9019B
:1004B000E85DFC4F8491F901EE51FD4FD491F901B3
:1004C000E456FD4FC491CC23A9F0162F81110E9450
:1004D000EB01EC2FF0E0EE0FFF1FE859FD4FA59167
:1004E000B4918FB7F894EC91111108C0D095DE2328
:1004F000DC938FBFDF91CF911F910895DE2BF8CF52
:10050000CF93DF9390E0FC01EE51FD4F2491845690
:100510009D4FFC0184918823C9F090E0880F991FBA
:10052000FC01E25BFD4FA591B491FC01E859FD4F40
:10053000C591D49161110DC09FB7F8948C9120950D
:1005400082238C938881282328839FBFDF91CF91BA
:100550000895623051F49FB7F8943C91822F8095B2
:1005600083238C93E8812E2BEFCF8FB7F894EC91F7
:100570002E2B2C938FBFEACF3FB7F89480917F0248
:1005800090918002A0918102B091820226B5A89B31
:1005900005C02F3F19F00196A11DB11D3FBFBA2F15
:1005A000A92F982F8827BC01CD01620F711D811DD5
:1005B000911D42E0660F771F881F991F4A95D1F75A
:1005C00008958F929F92AF92BF92CF92DF92EF9257
:1005D000FF924B015C010E94BC026B017C010E94F6
:1005E000BC026C197D098E099F09683E7340810524
:1005F0009105A8F321E0821A9108A108B10888EEBC
:10060000C80E83E0D81EE11CF11C81149104A104E2
:10061000B10429F7FF90EF90DF90CF90BF90AF909B
:100620009F908F900895AF92BF92CF92DF92EF92FA
:10063000FF920F931F93CF93DF936C017B018B018C
:10064000040F151FEB015E01AE18BF08C017D107DC
:1006500059F06991D601ED91FC910190F081E02D66
:10066000C6011995892B79F7C501DF91CF911F91AB
:100670000F91FF90EF90DF90CF90BF90AF900895D3
:10068000FC01538D448D252F30E0842F90E0821B98
:10069000930B541710F0CF96089501970895FC011D
:1006A000918D828D981761F0A28DAE0FBF2FB11D75
:1006B0005D968C91928D9F5F9F73928F90E00895CD
:1006C0008FEF9FEF0895FC01918D828D981731F087
:1006D000828DE80FF11D858D90E008958FEF9FEFDB
:1006E0000895FC01918D228D892F90E0805C9F4FB1
:1006F000821B91098F739927089583E892E00E94E5
:10070000710321E0892B09F420E0822F0895FC0178
:10071000A48DA80FB92FB11DA35ABF4F2C91848D62
:1007200090E001968F739927848FA689B7892C93BF
:10073000A089B1898C91837080648C93938D848D12
:10074000981306C00288F389E02D80818F7D808315
:100750000895EF92FF920F931F93CF93DF93EC01D5
:1007600081E0888F9B8D8C8D98131AC0E889F98958
:10077000808185FF15C09FB7F894EE89FF8960835B
:10078000E889F98980818370806480839FBF81E0DC
:1007900090E0DF91CF911F910F91FF90EF9008951E
:1007A000F62E0B8D10E00F5F1F4F0F731127E02EF9
:1007B0008C8D8E110CC00FB607FCFACFE889F98931
:1007C000808185FFF5CFCE010E948703F1CFEB8DAD
:1007D000EC0FFD2FF11DE35AFF4FF0829FB7F89405
:1007E0000B8FEA89FB8980818062CFCFCF93DF9323
:1007F000EC01888D8823B9F0AA89BB89E889F98939
:100800008C9185FD03C0808186FD0DC00FB607FC6D
:10081000F7CF8C9185FFF2CF808185FFEDCFCE01A0
:100820000E948703E9CFDF91CF91089580E090E0A7
:10083000892B29F00E947D0381110E94000080E035
:1008400090E0892B49F080E090E0892B29F00E940C
:10085000000081110E94000080E090E0892B49F0A7
:1008600080E090E0892B29F00E94000081110E9415
:10087000000080E090E0892B49F080E090E0892B37
:1008800029F00E94000081110C9400000895089541
:1008900090E080E00895FC0101900020E9F7319795
:1008A000AF01481B590BBC0183E892E00C94130381
:1008B0008F929F92AF92BF920F931F93CF93DF932C
:1008C000CDB7DEB7A1970FB6F894DEBF0FBECDBF90
:1008D00019A2423008F44AE08E010F5D1F4F842EAA
:1008E000912CB12CA12CA50194010E94AB0FE62FF5
:1008F000B901CA01EA30F4F4E05DD801EE938D014C
:10090000232B242B252B79F790E080E0109719F00A
:10091000CD010E944B04A1960FB6F894DEBF0FBE26
:10092000CDBFDF91CF911F910F91BF90AF909F905E
:100930008F900895E95CE1CFCF93DF93FC01448170
:1009400055816081718183E892E00E941303EC017C
:1009500084E292E00E944B048C0F9D1FDF91CF91A7
:1009600008950F931F93CF93DF93EC0188819981B2
:10097000009759F02A813B812617370730F081E034
:10098000DF91CF911F910F9108958B016F5F7F4F82
:100990000E94FA10009759F0998388831B830A8379
:1009A0002C813D81232B59F7FC011082E8CF80E098
:1009B000E7CFEF92FF920F931F93CF93DF936115D1
:1009C000710541F480E0DF91CF911F910F91FF906D
:1009D000EF90089541155105B1F07B01EC010C81B8
:1009E0001D81040F151FB8010E94B104882351F323
:1009F000288139818C819D81B701820F931F0E94CC
:100A0000E4111D830C8381E0DECFCF93DF93EC01F3
:100A100088819981009711F00E94711019821882C3
:100A20001D821C821B821A82DF91CF910895CF9381
:100A3000DF93EC01FB0101900020E9F73197AF0152
:100A4000461B570B0E94D904811103C0CE010E949E
:100A50000505CE01DF91CF910895CF93DF93EC018F
:100A6000FB0144815581608171810E94D90481110B
:100A700003C0CE010E940505CE01DF91CF910895FC
:100A8000EF92FF920F931F93CF93DF93EC017B01C3
:100A90008A01BA010E94B10481110BC0CE010E94EB
:100AA0000505CE01DF91CF911F910F91FF90EF903F
:100AB00008951D830C83B701888199810E94E411F8
:100AC000F0CFFC01118210821382128215821482EF
:100AD000FB0101900020E9F73197AF01461B570B4E
:100AE0000C944005FC0180819181009711F00C94D9
:100AF00071100895FB01DC0111961C921E92139651
:100B00001C921E92129715961C921E92149786178D
:100B1000970749F0608171816115710521F0448169
:100B200055810C9440050895CF93DF93EC0160E06C
:100B30008E810E94520261E08E810E94520260E02A
:100B40008E810E9452028BE891E00197F1F7DF91CC
:100B5000CF910895CF92DF92EF92FF920F931F9360
:100B6000CF93DF936C017C0187E0E80EF11CD0E0AD
:100B7000C0E0062F10E0B8010C2E02C075956795F5
:100B80000A94E2F76170F70181917F010E9452029D
:100B90002196C430D10579F7C601DF91CF911F911D
:100BA0000F91FF90EF90DF90CF900C949405CF922F
:100BB000DF92EF92FF920F931F93CF93DF93EC019D
:100BC000F62E642F8C810E9452028D818F3F19F086
:100BD00060E00E9452020F2D10E08F8584FF25C037
:100BE0006E0187E0C80ED11CF12CE12CB8010E2C4F
:100BF00002C0759567950A94E2F76170F6018191DC
:100C00006F010E945202FFEFEF1AFF0A88E0E81618
:100C1000F10461F7CE01DF91CF911F910F91FF9009
:100C2000EF90DF90CF900C949405B80184E0759517
:100C300067958A95E1F7CE010E94AA056F2DCE0136
:100C4000DF91CF911F910F91FF90EF90DF90CF90A8
:100C50000C94AA0540E0682F80E293E00C94D7053D
:100C6000CF93DF93823029F490912F039860909373
:100C70002F03809333031092340380E48093350371
:100C800080E18093360380E58093370361E08091B3
:100C900024030E948002809125038F3F19F061E0B8
:100CA0000E94800261E0809126030E948002C0E2DF
:100CB000D3E09E012052334080912F0384FD0BC06E
:100CC00084E090E021962817390744F461E08E8192
:100CD0000E948002EECF88E090E0F4CF8BE39DE0AD
:100CE0000197F1F760E0809124030E94520260E0D6
:100CF000809126030E945202809125038F3F19F0B4
:100D000060E00E94520280912F0384FD39C063E0AD
:100D100080E293E00E94AA05CBE4D6E4CE010197DD
:100D2000F1F763E080E293E00E94AA052197F1F7D2
:100D300063E080E293E00E94AA0583E592E00197D8
:100D4000F1F762E080E293E00E94AA0580912F0310
:100D500080620E942A0684E0809330038CE00E9427
:100D60002A0681E00E942A068BE39FE10197F1F7B2
:100D700082E08093310386E0DF91CF910C942A06C4
:100D800080620E942A068BE496E40197F1F7809135
:100D90002F0380620E942A0683E592E00197F1F713
:100DA00080912F0380620E942A06D0CFCF93DF93D9
:100DB000EC0180913303681710F06FEF680FE62F96
:100DC000F0E0E05EFC4F848980680E942A064C8136
:100DD0005D816881798180E293E0DF91CF910C940D
:100DE0001303EF92FF920F931F93CF93DF93CDB72F
:100DF000DEB72C970FB6F894DEBF0FBECDBF8B01C8
:100E00009C013327F901E85DFC4F8491F901EE5113
:100E1000FD4FE490F901E456FD4FF490FF2009F4F2
:100E200055C081110E94EB01EF2DF0E0EE0FFF1F86
:100E3000EE57FD4FA591B491EC91EE2209F446C016
:100E400067E272E0CE0101960E946105B801CE0111
:100E500001960E942D050E949C04CE0101960E94DD
:100E6000720564E372E0CE0107960E946105B80145
:100E7000CE0107960E942D056AE372E00E941705D5
:100E8000BC01CE0101960E947A0561E070E0CE01BE
:100E900001960E94D606CE0101960E947205CE01EF
:100EA00007960E94720560ED77E080E090E00E9476
:100EB000E1022C960FB6F894DEBF0FBECDBFDF91D6
:100EC000CF911F910F91FF90EF9008956DE372E025
:100ED000CE0101960E946105B801CE0101960E94E3
:100EE0002D050E949C04CE0101960E94720564E3C8
:100EF00072E0CE0107960E946105B801CE01079607
:100F00000E942D056AE472E0B9CF41E00E94D70546
:100F100081E090E008952F923F924F925F926F92FE
:100F20007F928F929F92AF92BF92CF92DF92EF9279
:100F3000FF920F931F93CF93DF93CDB7DEB7AD979B
:100F40000FB6F894DEBF0FBECDBFB82E8B011A01CD
:100F500060E00E94520283E090E00197F1F761E0C7
:100F60008B2D0E94520283E290E00197F1F760E03E
:100F70008B2D0E945202F801EE51FD4F6491F80151
:100F8000E456FD4FE491F0E0EE0FFF1FEE57FD4FEA
:100F90008591949100E412E42FE030E0462F0E9406
:100FA000CA09611571058105910529F06F5F7F4FB1
:100FB0008F4F9F4F9F700E94E80D26E933E44BE06E
:100FC0005DE30E94470E20E030E040E05FE30E94D6
:100FD000470E4B015C016DE472E0CE0101960E9468
:100FE0006105B101CE0101960E942D0567E572E011
:100FF0000E941705FC01448155816081718183E85D
:1010000092E00E941303CE0101960E947205A50191
:101010009401C501B4010E94A60F882309F479C088
:101020008AE592E00E944B0486E692E00E944B041F
:1010300084E292E00E944B041BA21AA21DA21CA2F1
:101040001FA21EA28E010F5F1F4F22E044E0C501C8
:10105000B4010E94720B009709F4EDC0FC010190ED
:101060000020E9F73197AF01481B590BBC01CE01B5
:1010700082960E9440056AE672E0CE0101960E94C7
:101080006105B101CE0101960E942D0560E772E075
:101090000E941705BE016E5D7F4F0E942D0567E619
:1010A00072E00E941705BC01CE0188960E947A0565
:1010B00070E060E0CE0188960E94D606CE01889648
:1010C0000E947205CE0101960E947205CE018296A1
:1010D0000E94720568EE73E080E090E00E94E102F9
:1010E000AD960FB6F894DEBF0FBECDBFDF91CF91A6
:1010F0001F910F91FF90EF90DF90CF90BF90AF9036
:101100009F908F907F906F905F904F903F902F9027
:10111000089524013501E89477F82FEF3FEF4FE76A
:101120005FE7C301B2010E94A60F81110DC02FEF2E
:101130003FEF4FE75FE7C301B2010E94E10D1816D0
:101140001CF48EE592E06ECF2FEF3FEF4FE75FE4A8
:10115000C501B4010E94A10F18161CF482E692E0AA
:1011600061CF2FEF3FEF4FE75FECC501B4010E9465
:10117000E10D87FDF3CF20E030E0A901C501B40106
:101180000E94E10D87FF54C06DE283E892E00E9467
:10119000A903C501B40190582AE037ED43EA5BE3A7
:1011A0000E94060F6B017C010E94720F2B013C0113
:1011B0000E94E60D9B01AC01C701B6010E94050F1C
:1011C0006B017C014AE0C301B2010E9458046EE247
:1011D00083E892E00E94A90320E030E040E251E47D
:1011E000C701B6010E94470E6B017C010E94720F7D
:1011F0002B01712C612C4AE0C301B2010E945804FA
:10120000C301B2010E94E60D9B01AC01C701B6010A
:101210000E94050F20E030E040E251E40E94470EBA
:101220000E94720F90E080E04AE00E945804FCCED9
:10123000C501B401B1CFCE0182960E9405051BCF36
:101240001F920F920FB60F9211242F933F938F93FB
:101250009F93AF93BF9380917B0290917C02A0916A
:101260007D02B0917E0230917A0223E0230F2D3768
:1012700058F50196A11DB11D20937A0280937B023F
:1012800090937C02A0937D02B0937E0280917F02B6
:1012900090918002A0918102B09182020196A11DDD
:1012A000B11D80937F0290938002A0938102B0933E
:1012B0008202BF91AF919F918F913F912F910F909B
:1012C0000FBE0F901F90189526E8230F0296A11DC0
:1012D000B11DD2CF1F920F920FB60F9211240BB6F1
:1012E0000F922F933F934F935F936F937F938F93BF
:1012F0009F93AF93BF93EF93FF9383E892E00E9495
:101300008703FF91EF91BF91AF919F918F917F9153
:101310006F915F914F913F912F910F900BBE0F9066
:101320000FBE0F901F9018951F920F920FB60F923D
:1013300011240BB60F922F938F939F93EF93FF93EC
:10134000E0919302F09194028081E0919902F091F2
:101350009A0282FD1DC0908180919C028F5F8F73E5
:1013600020919D02821741F0E0919C02F0E0ED5740
:10137000FD4F958F80939C02FF91EF919F918F91EC
:101380002F910F900BBE0F900FBE0F901F901895CE
:101390008081F2CFCF92DF92EF92FF920F931F9353
:1013A000E82FF92F05C0015011092109310961F118
:1013B000908196239417B9F305C0015011092109B2
:1013C000310911F1908196239413F7CFC12CD12CC0
:1013D000E12CF12C0AC08FEFC81AD80AE80AF80AE3
:1013E0000C151D052E053F0579F080818623841795
:1013F00091F36C2D7D2D8E2D9F2D1F910F91FF90C0
:10140000EF90DF90CF90089560E070E080E090E092
:101410001F910F91FF90EF90DF90CF900895E3E838
:10142000F2E01382128288EE93E0A0E0B0E08483C1
:101430009583A683B7838AE092E09183808385ECCD
:1014400090E09587848784EC90E09787868780EC8E
:1014500090E0918B808B81EC90E0938B828B82EC7F
:1014600090E0958B848B86EC90E0978B868B118E29
:10147000128E138E148EE0E2F3E0138212828CE15E
:1014800092E09183808383E384838FEF858381E37C
:1014900086838FE287838DE280878BE2818789E272
:1014A00082871386148615861686178681E00C942B
:1014B0003006CF93DF9300D000D0CDB7DEB778945D
:1014C00084B5826084BD84B5816084BD85B5826049
:1014D00085BD85B5816085BD80916E0081608093FA
:1014E0006E00109281008091810082608093810063
:1014F0008091810081608093810080918000816073
:10150000809380008091B10084608093B1008091CD
:10151000B00081608093B0008091910082608093E0
:101520009100809191008160809391008091900062
:101530008160809390008091A10082608093A100DF
:101540008091A10081608093A1008091A0008160C2
:101550008093A0008091210182608093210180917D
:10156000210181608093210180912001816080931D
:10157000200180917A00846080937A0080917A00C3
:10158000826080937A0080917A00816080937A00F3
:1015900080917A00806880937A001092C10061E0A7
:1015A00082E00E94800260E083E00E94800261E0AD
:1015B00084E00E94800260E085E00E94800260E09A
:1015C00087E30E94800262E086E30E94800260E07E
:1015D00089E30E94800262E088E30E948002E09139
:1015E0009302F091940282E08083E0918F02F09167
:1015F00090021082E0919102F09192028FEC808330
:1016000010929B02E0919702F091980286E080830D
:10161000E0919502F0919602808180618083E09153
:101620009502F0919602808188608083E091950216
:10163000F0919602808180688083E0919502F0911C
:10164000960280818F7D808382E00E94300662E76F
:1016500072E0CE0101960E946105AE014F5F5F4FBF
:1016600063E070E082E090E00E948B07CE0101967B
:101670000E94720562E772E0CE0101960E94610548
:10168000BE016F5F7F4F86E390E00E94F106CE01BE
:1016900001960E94720566E772E0CE0101960E94F3
:1016A0006105AE014F5F5F4F65E070E084E090E060
:1016B0000E948B07CE0101960E94720566E772E0D8
:1016C000CE0101960E946105BE016F5F7F4F88E3E6
:1016D00090E00E94F106CE0101960E9472050E94E0
:1016E0001604B5CFEF920F931F93CF93DF93E801CA
:1016F00034E047FD34E1042E000C550B57FF03C0C6
:10170000519541955109E32E022F242FAE010E94DD
:10171000900BCE01DF91CF911F910F91EF90089523
:101720008F929F92AF92BF92CF92DF92EF92FF92F1
:101730000F931F93CF93DF9300D000D000D0CDB78D
:10174000DEB76A01F22EB02E102FFBE3AF2EA016EB
:1017500008F41BE31F5F012F27E0AE014F5F5F4FCF
:101760000E94090DBC018981982F9970913009F46C
:101770004EC09BE2E1FC04C09E2D9170E0FC49C08C
:101780005E2D5071E82FE87083FF55C084E0911101
:1017900001C083E0EF2DE81B8F1508F0E0E0D601D3
:1017A0008E2F20E25523C9F1992329F0D6019C936D
:1017B000C60101966C0196012D5F3F4FE2FE33C0DA
:1017C0008EE4D6018C9391E411969C931197129616
:1017D0008C93D9018E2F90E281112AC0E20FF32F52
:1017E000F11D10828EEF9FEF29960FB6F894DEBFA1
:1017F0000FBECDBFDF91CF911F910F91FF90EF9062
:10180000DF90CF90BF90AF909F908F9008959DE212
:10181000B7CF90E2B5CF2D9381508111FCCFCE0E82
:10182000D11CE0E0C1CF8EE6D6018C9391E6CCCFFF
:101830009D938150D1CF482F447082FF3DC084E0FA
:10184000911101C083E08F1510F4EF2DE81BD60134
:101850008E2F20E2552309F1992329F0D6019C937C
:10186000C60101966C0196012D5F3F4FE2FE1BC041
:1018700089E4D6018C938EE411968C93119786E4BB
:1018800012968C93D9018E2F90E2882309F4A6CF6B
:101890009D938150FACF2D9381508111FCCFCE0EB4
:1018A000D11CE0E0D9CF89E6D6018C938EE6119663
:1018B0008C93119786E6E4CF9B0177FF02C030E05E
:1018C00020E0A1E0B0E0911102C0B0E0A0E0F90199
:1018D0003196AE0FBF1F8B2C912CBB2009F461C039
:1018E0005401EFEFAE1ABE0AAA0DBB1DFA161B0675
:1018F00019F014F04F2D4A1B511188C0E3FC59C058
:101900007601A42FB0E2A1114FC0C40ED11C9923BF
:1019100009F45BC040E0D6011196F60190836D0199
:10192000552309F448C0012F060F9A81582F507192
:1019300084FF03C0913309F4015010160CF047C026
:10194000093008F008E0EEE2FE2E5B01A01AB108B3
:1019500085019194819491082F3F320729F4D60193
:10196000FC92F60131966F016217730794F102172A
:1019700013077CF5DB01A21BB30BAA24A394B12CA3
:10198000AC0EBD1EAA0DBB1D11968C9121503109C4
:10199000D601119628153905F4F0F60180836D0102
:1019A000DBCFB12CA12CA0CFF701B1937F01A150C7
:1019B000AACF9111B0CFD601942F50E302C05D930E
:1019C00091509111FCCFC40ED11C40E0ACCF01E08E
:1019D000BACF80E3DBCF6217730731F4963388F414
:1019E000953311F4552369F0F6018083FD01842FAE
:1019F00090E2811108C0A40FB11D1C9290E080E01C
:101A0000F3CE81E3F1CF91938150F3CF911183CF46
:101A10008ACF283008F027E03327DA01990F311DEB
:101A200087FD916000966105710539F432602E5F83
:101A30003D9330E32A95E1F708959F3F30F08038D9
:101A40007105610509F03C5F3C5F3D93913008F002
:101A50008068911DDF93CF931F930F93FF92EF92B6
:101A6000192F987F9695E92F96959695E90FFF2760
:101A7000E255FE4F99273327EE24FF24A701E70103
:101A800005900894079428F4360FE71EF81E491FA6
:101A9000511D660F771F881F991F0694A1F70590A7
:101AA000079428F4E70EF81E491F561FC11D770F33
:101AB000881F991F661F0694A1F70590079428F4C4
:101AC000F80E491F561FC71FD11D880F991F661F8B
:101AD000771F0694A1F70590079420F4490F561F2D
:101AE000C71FD81F990F661F771F881F0694A9F775
:101AF00084911095177041F0D695C79557954795E5
:101B0000F794E7941A95C1F7E4E5F1E0689415902D
:101B1000159135916591959105907FE27395E11846
:101B2000F10A430B560BC90BD009C0F7E10CF11EAB
:101B3000431F561FC91FD01D7EF4703311F48A95C0
:101B4000E6CFE894015030F0080F0AF4002702179E
:101B500008F4202F2395022F7A3328F079E37D9320
:101B60002A95E9F710C07D932A9589F606949795F2
:101B70006795379517951794E118F10A430B560BA3
:101B8000C90BD00998F023957E9173957A3308F0AC
:101B900070E37C932013B8F77E9170617D9330F0F1
:101BA000839571E37D9370E32A95E1F71124EF901B
:101BB000FF900F911F91CF91DF91992787FD90950D
:101BC00008950E94230E08F481E00895E89409C066
:101BD00097FB3EF490958095709561957F4F8F4F60
:101BE0009F4F9923A9F0F92F96E9BB279395F69576
:101BF000879577956795B795F111F8CFFAF4BB0FF4
:101C000011F460FF1BC06F5F7F4F8F4F9F4F16C057
:101C1000882311F096E911C0772321F09EE8872FE1
:101C2000762F05C0662371F096E8862F70E060E09D
:101C30002AF09A95660F771F881FDAF7880F969516
:101C4000879597F90895990F0008550FAA0BE0E8BA
:101C5000FEEF16161706E807F907C0F0121613066E
:101C6000E407F50798F0621B730B840B950B39F4AE
:101C70000A2661F0232B242B252B21F408950A2614
:101C800009F4A140A6958FEF811D811D08950E9442
:101C90005A0E0C94CB0E0E94BD0E38F00E94C40E5A
:101CA00020F0952311F00C94B40E0C94BA0E11246C
:101CB0000C94FF0E0E94DC0E70F3959FC1F3950FFC
:101CC00050E0551F629FF001729FBB27F00DB11DC0
:101CD000639FAA27F00DB11DAA1F649F6627B00D50
:101CE000A11D661F829F2227B00DA11D621F739F39
:101CF000B00DA11D621F839FA00D611D221F749F47
:101D00003327A00D611D231F849F600D211D822F8D
:101D1000762F6A2F11249F5750409AF0F1F08823B4
:101D20004AF0EE0FFF1FBB1F661F771F881F9150E1
:101D30005040A9F79E3F510580F00C94B40E0C94CE
:101D4000FF0E5F3FE4F3983ED4F386957795679551
:101D5000B795F795E7959F5FC1F7FE2B880F911D0B
:101D60009695879597F9089597F99F6780E870E0B1
:101D700060E008959FEF80EC089500240A94161601
:101D8000170618060906089500240A941216130669
:101D9000140605060895092E0394000C11F48823F7
:101DA00052F0BB0F40F4BF2B11F460FF04C06F5F13
:101DB0007F4F8F4F9F4F089557FD9058440F551FE9
:101DC00059F05F3F71F04795880F97FB991F61F0BD
:101DD0009F3F79F087950895121613061406551F34
:101DE000F2CF4695F1DF08C0161617061806991FA0
:101DF000F1CF86957105610508940895E894BB2795
:101E000066277727CB0197F908955058BB27AA2753
:101E10000E941D0F0C94CB0E0E94BD0E38F00E9444
:101E2000C40E20F039F49F3F19F426F40C94BA0E36
:101E30000EF4E095E7FB0C94B40EE92F0E94DC0E43
:101E400058F3BA17620773078407950720F079F4EF
:101E5000A6F50C94FE0E0EF4E0950B2EBA2FA02DD5
:101E60000B01B90190010C01CA01A0011124FF2747
:101E7000591B99F0593F50F4503E68F11A16F04042
:101E8000A22F232F342F4427585FF3CF4695379541
:101E90002795A795F0405395C9F77EF41F16BA0B06
:101EA000620B730B840BBAF09150A1F0FF0FBB1FB4
:101EB000661F771F881FC2F70EC0BA0F621F731FFD
:101EC000841F48F4879577956795B795F7959E3F5A
:101ED00008F0B0CF9395880F08F09927EE0F9795EB
:101EE000879508950E94E40E88F09F5798F0B92FC7
:101EF0009927B751B0F0E1F0660F771F881F991F3F
:101F00001AF0BA95C9F714C0B13091F00E94FE0ED4
:101F1000B1E008950C94FE0E672F782F8827B85FE4
:101F200039F0B93FCCF3869577956795B395D9F796
:101F30003EF490958095709561957F4F8F4F9F4FA0
:101F400008950E94230E08F48FEF08950E94230E37
:101F5000880B990B0895A1E21A2EAA1BBB1BFD0149
:101F60000DC0AA1FBB1FEE1FFF1FA217B307E40778
:101F7000F50720F0A21BB30BE40BF50B661F771FD0
:101F8000881F991F1A9469F76095709580959095B0
:101F90009B01AC01BD01CF010895EE0FFF1F881F0B
:101FA0008BBF0790F691E02D19940F931F93CF9359
:101FB000DF938230910510F482E090E0E0913A03E3
:101FC000F0913B0330E020E0B0E0A0E0309799F4DE
:101FD0002115310509F44AC0281B390B243031057D
:101FE000D8F58A819B816115710589F1FB01938385
:101FF0008283FE0111C04081518102811381481703
:102000005907E0F04817590799F4109761F01296B4
:102010000C93129713961C933296CF01DF91CF91B8
:102020001F910F91089500933A0310933B03F4CF4F
:102030002115310551F04217530738F0A901DB0192
:102040009A01BD01DF01F801C1CFEF01F9CF9093F3
:102050003B0380933A03CDCFFE01E20FF31F819340
:1020600091932250310939832883D7CF20913803A7
:1020700030913903232B41F4209102023091030265
:1020800030933903209338032091000230910102EC
:102090002115310541F42DB73EB74091040250910E
:1020A0000502241B350BE0913803F0913903E21748
:1020B000F307A0F42E1B3F0B2817390778F0AC016B
:1020C0004E5F5F4F2417350748F04E0F5F1F509348
:1020D000390340933803819391939FCFF0E0E0E080
:1020E0009CCFCF93DF930097E9F0FC0132971382E6
:1020F0001282A0913A03B0913B03ED0130E020E061
:102100001097A1F420813181820F931F2091380311
:10211000309139032817390709F061C0F09339036A
:10212000E0933803DF91CF910895EA01CE17DF07DE
:10213000E8F54A815B819E0141155105B1F7E9013E
:10214000FB83EA8349915991C40FD51FEC17FD0712
:1021500061F4808191810296840F951FE901998332
:102160008883828193819B838A83F0E0E0E01296EA
:102170008D919C9113970097B9F52D913C911197F2
:10218000CD010296820F931F2091380330913903BD
:102190002817390739F6309751F510923B03109202
:1021A0003A03B0933903A0933803BCCFD383C283DF
:1021B00040815181840F951FC817D90761F44E5F84
:1021C0005F4F88819981480F591F518340838A81CD
:1021D0009B81938382832115310509F0B0CFF09361
:1021E0003B03E0933A039ECFFD01DC01C0CF138295
:1021F0001282D7CF4F925F926F927F928F929F926F
:10220000AF92BF92CF92DF92EF92FF920F931F9304
:10221000CF93DF938C01009799F4CB01DF91CF919D
:102220001F910F91FF90EF90DF90CF90BF90AF90F4
:102230009F908F907F906F905F904F900C94D50FF0
:10224000FC01E60FF71F9C0122503109E217F3074A
:1022500008F4AEC0D901CD91DC911197C617D7070C
:1022600020F1C530D10578F0CE0104978617970785
:1022700050F0C61BD70B2297C193D1936D937C93DB
:10228000CF010E947110C801DF91CF911F910F9172
:10229000FF90EF90DF90CF90BF90AF909F908F9086
:1022A0007F906F905F904F9008955B01AC1ABD0ACC
:1022B0004C018C0E9D1EA0913A03B0913B03512C12
:1022C000412CF12CE12C109731F58091380390913D
:1022D00039038815990509F05CC04616570608F0C1
:1022E00058C08091000290910102009741F48DB78F
:1022F0009EB74091040250910502841B950BE8178C
:10230000F90708F055C0F0933903E0933803F90159
:1023100071836083B8CF8D919C91119712966C90C8
:10232000129713967C901397A815B90559F56C016F
:1023300042E0C40ED11CCA14DB0420F1AC014A19DE
:102340005B09DA011296159780F0628273825183DD
:102350004083D9016D937C93E114F10471F0D701AE
:102360001396FC93EE9312978ECF22968C0F9D1F9F
:10237000F90191838083F301EFCFF0933B03E09366
:102380003A0381CF4816590608F42C017D01D30188
:102390009ACFCB010E94D50F7C01009749F0AE0186
:1023A000B8010E94DB11C8010E94711087016BCF38
:1023B00010E000E068CFFB01DC0102C001900D924B
:1023C00041505040D8F70895FB01DC0101900D9277
:0A23D0000020E1F70895F894FFCF14
:1023DA0000003C03800000000000A903130340032F
:1023EA00F60371034F03630300000000850713031C
:1023FA00480447040D0A00546170612063657272D3
:10240A00616461005461706120002063005461704E
:10241A0061206162696572746100206100446973B8
:10242A0074616E636961003A20006E616E00696EC4
:10243A0066006F76660020636D004469737420003D
:0A244A003A00497A710044657200FF
:00000001FF
